{
  "_format": "hh-sol-artifact-1",
  "contractName": "BuyMeACoffee",
  "sourceName": "contracts/BuyMeACoffee.sol",
  "abi": [
    {
      "inputs": [],
      "stateMutability": "nonpayable",
      "type": "constructor"
    },
    {
      "anonymous": false,
      "inputs": [
        {
          "indexed": true,
          "internalType": "address",
          "name": "from",
          "type": "address"
        },
        {
          "indexed": false,
          "internalType": "uint256",
          "name": "timestamp",
          "type": "uint256"
        },
        {
          "indexed": false,
          "internalType": "string",
          "name": "name",
          "type": "string"
        },
        {
          "indexed": false,
          "internalType": "string",
          "name": "message",
          "type": "string"
        }
      ],
      "name": "NewMemo",
      "type": "event"
    },
    {
      "inputs": [
        {
          "internalType": "string",
          "name": "_name",
          "type": "string"
        },
        {
          "internalType": "string",
          "name": "_message",
          "type": "string"
        }
      ],
      "name": "buyCoffee",
      "outputs": [],
      "stateMutability": "payable",
      "type": "function"
    },
    {
      "inputs": [
        {
          "internalType": "string",
          "name": "_name",
          "type": "string"
        },
        {
          "internalType": "string",
          "name": "_message",
          "type": "string"
        }
      ],
      "name": "buyLargeCoffee",
      "outputs": [],
      "stateMutability": "payable",
      "type": "function"
    },
    {
      "inputs": [],
      "name": "getMemos",
      "outputs": [
        {
          "components": [
            {
              "internalType": "address",
              "name": "from",
              "type": "address"
            },
            {
              "internalType": "uint256",
              "name": "timestamp",
              "type": "uint256"
            },
            {
              "internalType": "string",
              "name": "name",
              "type": "string"
            },
            {
              "internalType": "string",
              "name": "message",
              "type": "string"
            }
          ],
          "internalType": "struct BuyMeACoffee.Memo[]",
          "name": "",
          "type": "tuple[]"
        }
      ],
      "stateMutability": "view",
      "type": "function"
    },
    {
      "inputs": [
        {
          "internalType": "address payable",
          "name": "_to",
          "type": "address"
        }
      ],
      "name": "withdrawCoffeeTo",
      "outputs": [],
      "stateMutability": "nonpayable",
      "type": "function"
    },
    {
      "inputs": [],
      "name": "withdrawTips",
      "outputs": [],
      "stateMutability": "nonpayable",
      "type": "function"
    }
  ],
  "bytecode": "0x608060405234801561001057600080fd5b5033600160006101000a81548173ffffffffffffffffffffffffffffffffffffffff021916908373ffffffffffffffffffffffffffffffffffffffff160217905550610d42806100616000396000f3fe60806040526004361061004a5760003560e01c8063204206e11461004f578063283ec3db1461006b5780633aaa74b214610094578063417f9ea9146100ab578063865c5172146100c7575b600080fd5b6100696004803603810190610064919061088e565b6100f2565b005b34801561007757600080fd5b50610092600480360381019061008d9190610964565b61027a565b005b3480156100a057600080fd5b506100a96102c4565b005b6100c560048036038101906100c0919061088e565b610326565b005b3480156100d357600080fd5b506100dc6104ae565b6040516100e99190610b7f565b60405180910390f35b60003411610135576040517f08c379a000000000000000000000000000000000000000000000000000000000815260040161012c90610bfe565b60405180910390fd5b600060405180608001604052803373ffffffffffffffffffffffffffffffffffffffff16815260200142815260200184815260200183815250908060018154018082558091505060019003906000526020600020906004020160009091909190915060008201518160000160006101000a81548173ffffffffffffffffffffffffffffffffffffffff021916908373ffffffffffffffffffffffffffffffffffffffff160217905550602082015181600101556040820151816002019080519060200190610204929190610691565b506060820151816003019080519060200190610221929190610691565b5050503373ffffffffffffffffffffffffffffffffffffffff167fc56140e05f516509ae28110e0f72e17558a7561630dad2647c3ae87d986e365c42848460405161026e93929190610c66565b60405180910390a25050565b8073ffffffffffffffffffffffffffffffffffffffff166108fc479081150290604051600060405180830381858888f193505050501580156102c0573d6000803e3d6000fd5b5050565b600160009054906101000a900473ffffffffffffffffffffffffffffffffffffffff1673ffffffffffffffffffffffffffffffffffffffff166108fc479081150290604051600060405180830381858888f1935050505061032457600080fd5b565b60003411610369576040517f08c379a000000000000000000000000000000000000000000000000000000000815260040161036090610bfe565b60405180910390fd5b600060405180608001604052803373ffffffffffffffffffffffffffffffffffffffff16815260200142815260200184815260200183815250908060018154018082558091505060019003906000526020600020906004020160009091909190915060008201518160000160006101000a81548173ffffffffffffffffffffffffffffffffffffffff021916908373ffffffffffffffffffffffffffffffffffffffff160217905550602082015181600101556040820151816002019080519060200190610438929190610691565b506060820151816003019080519060200190610455929190610691565b5050503373ffffffffffffffffffffffffffffffffffffffff167fc56140e05f516509ae28110e0f72e17558a7561630dad2647c3ae87d986e365c4284846040516104a293929190610c66565b60405180910390a25050565b60606000805480602002602001604051908101604052809291908181526020016000905b8282101561068857838290600052602060002090600402016040518060800160405290816000820160009054906101000a900473ffffffffffffffffffffffffffffffffffffffff1673ffffffffffffffffffffffffffffffffffffffff1673ffffffffffffffffffffffffffffffffffffffff1681526020016001820154815260200160028201805461056590610cda565b80601f016020809104026020016040519081016040528092919081815260200182805461059190610cda565b80156105de5780601f106105b3576101008083540402835291602001916105de565b820191906000526020600020905b8154815290600101906020018083116105c157829003601f168201915b505050505081526020016003820180546105f790610cda565b80601f016020809104026020016040519081016040528092919081815260200182805461062390610cda565b80156106705780601f1061064557610100808354040283529160200191610670565b820191906000526020600020905b81548152906001019060200180831161065357829003601f168201915b505050505081525050815260200190600101906104d2565b50505050905090565b82805461069d90610cda565b90600052602060002090601f0160209004810192826106bf5760008555610706565b82601f106106d857805160ff1916838001178555610706565b82800160010185558215610706579182015b828111156107055782518255916020019190600101906106ea565b5b5090506107139190610717565b5090565b5b80821115610730576000816000905550600101610718565b5090565b6000604051905090565b600080fd5b600080fd5b600080fd5b600080fd5b6000601f19601f8301169050919050565b7f4e487b7100000000000000000000000000000000000000000000000000000000600052604160045260246000fd5b61079b82610752565b810181811067ffffffffffffffff821117156107ba576107b9610763565b5b80604052505050565b60006107cd610734565b90506107d98282610792565b919050565b600067ffffffffffffffff8211156107f9576107f8610763565b5b61080282610752565b9050602081019050919050565b82818337600083830152505050565b600061083161082c846107de565b6107c3565b90508281526020810184848401111561084d5761084c61074d565b5b61085884828561080f565b509392505050565b600082601f83011261087557610874610748565b5b813561088584826020860161081e565b91505092915050565b600080604083850312156108a5576108a461073e565b5b600083013567ffffffffffffffff8111156108c3576108c2610743565b5b6108cf85828601610860565b925050602083013567ffffffffffffffff8111156108f0576108ef610743565b5b6108fc85828601610860565b9150509250929050565b600073ffffffffffffffffffffffffffffffffffffffff82169050919050565b600061093182610906565b9050919050565b61094181610926565b811461094c57600080fd5b50565b60008135905061095e81610938565b92915050565b60006020828403121561097a5761097961073e565b5b60006109888482850161094f565b91505092915050565b600081519050919050565b600082825260208201905092915050565b6000819050602082019050919050565b60006109c882610906565b9050919050565b6109d8816109bd565b82525050565b6000819050919050565b6109f1816109de565b82525050565b600081519050919050565b600082825260208201905092915050565b60005b83811015610a31578082015181840152602081019050610a16565b83811115610a40576000848401525b50505050565b6000610a51826109f7565b610a5b8185610a02565b9350610a6b818560208601610a13565b610a7481610752565b840191505092915050565b6000608083016000830151610a9760008601826109cf565b506020830151610aaa60208601826109e8565b5060408301518482036040860152610ac28282610a46565b91505060608301518482036060860152610adc8282610a46565b9150508091505092915050565b6000610af58383610a7f565b905092915050565b6000602082019050919050565b6000610b1582610991565b610b1f818561099c565b935083602082028501610b31856109ad565b8060005b85811015610b6d5784840389528151610b4e8582610ae9565b9450610b5983610afd565b925060208a01995050600181019050610b35565b50829750879550505050505092915050565b60006020820190508181036000830152610b998184610b0a565b905092915050565b600082825260208201905092915050565b7f63616e27742062757920636f6666656520776974682030206574680000000000600082015250565b6000610be8601b83610ba1565b9150610bf382610bb2565b602082019050919050565b60006020820190508181036000830152610c1781610bdb565b9050919050565b610c27816109de565b82525050565b6000610c38826109f7565b610c428185610ba1565b9350610c52818560208601610a13565b610c5b81610752565b840191505092915050565b6000606082019050610c7b6000830186610c1e565b8181036020830152610c8d8185610c2d565b90508181036040830152610ca18184610c2d565b9050949350505050565b7f4e487b7100000000000000000000000000000000000000000000000000000000600052602260045260246000fd5b60006002820490506001821680610cf257607f821691505b60208210811415610d0657610d05610cab565b5b5091905056fea264697066735822122038056d7dd91e4e91bca478f952e013098d3312b1ff544b5166a1a45888454cbf64736f6c63430008090033",
  "linkReferences": {},
  "deployedLinkReferences": {}
}